S011000053796D756C61636A612E737265636A
S11300000C942A000C9447000C9447000C9447006D
S11300100C9447000C9447000C9447000C94C302C2
S11300200C9447000C9447000C9447000C94E9008E
S11300300C9447000C9447000C9447000C94470020
S11300400C9447000C9447000C9447000C94470010
S11300500C94470011241FBECFE5D8E0DEBFCDBF0E
S113006010E0A0E6B0E0EAE6F6E002C005900D92EA
S1130070A437B107D9F720E0A4E7B0E001C01D928E
S1130080A038B207E1F70E949C010C9433030C944E
S113009000004AB321E030E0B90102C0660F771FC7
S11300A08A95E2F7CB01962F909549234ABB9BB3DF
S11300B0892B8BBB089529B330E0082E02C03595F7
S11300C027950A94E2F720FD09C0992319F091308D
S11300D019F0089591E0089592E00895933019F08D
S11300E0943019F0089594E0089590E00895C0982C
S11300F098B39F70282F207F922B98BBC19A3AE027
S11301003A95F1F700C0C1989AE69A95F1F700C0C4
S113011028B32F7030E1839FC0011124822B88BB48
S1130120C19A8AE08A95F1F700C0C19887EC90E003
S11301300197F1F700C000000895C09AC19A98B3DE
S11301409F70282F207F922B98BB3AE03A95F1F7C5
S113015000C0C1989AE69A95F1F700C028B32F70B1
S113016030E1839FC0011124822B88BBC19A8AE0AD
S11301708A95F1F700C0C19887EC90E00197F1F7F8
S113018000C000000895CF93DF93EC018881882399
S113019031F021960E949D0089918111FBCFDF915E
S11301A0CF9108958FEF87BB18BA82E00E94770041
S11301B081E20E94770081E00E94770086E00E943D
S11301C077008CE00E947700089582E00E94770017
S11301D008951F920F920FB60F9211242F933F93FD
S11301E04F935F936F937F938F939F93AF93BF933B
S11301F0EF93FF9380917D008F5F80937D00823029
S113020010F180916800909169000E945B009093C6
S113021069008093680080916600909167000E9455
S11302205B00909367008093660080917E009091BC
S11302307F000E945B0090937F0080937E00109269
S11302407D008BE282BFFF91EF91BF91AF919F91AF
S11302508F917F916F915F914F913F912F910F906B
S11302600FBE0F901F901895DC01FB018C91805DEF
S1130270808311968C911197805D81839AE3928398
S113028012968C911297805D838313968C911397A9
S1130290805D8483958314968C911497805D868306
S11302A015968C91805D878310860895E0E6F0E0D2
S11302B085818F5F85838A3090F184818F5F848309
S11302C0863058F183818F5F83838A3020F1828165
S11302D08F5F82838630E8F080916000823048F43A
S11302E091819F5F91839A3020F08F5F8083118288
S11302F00EC0823061F4809161008F5F843018F405
S11303008093610004C0E0E6F0E011821082109254
S113031062001092630010926400109265000E94C3
S1130320E50064E770E080E690E00E94340184E731
S113033090E00E94C300089588EE93E00E942D028D
S113034085E083BF89B7816089BF8BE282BF7894DF
S113035082E00E94490081E00E94490080E00E94FE
S113036049000E94D20064E770E080E690E00E94B9
S1130370340184E790E00E94C3000F2EFEE7EF2EC5
S1130380F0E0FF2EF02D0F2EF3E0BF2EF02DC0E68F
S1130390D0E006E610E00F2EF8E6CF2EF0E0DF2ED8
S11303A0F02D9C2EAD2EF7018181823089F41DBC85
S11303B01CBCB1821D821C820E94E50064E770E0CF
S11303C0892D9A2D0E94340184E790E00E94C30095
S11303D0F80181818230D1F4B1828B818F5F8B836C
S11303E08A3040F08A818F5F863010F48A8301C09E
S11303F01A821B820E94E50064E770E0892D9A2D21
S11304000E94340184E790E00E94C300F6018181D8
S1130410823049F6B1828881823048F499819F5FA5
S113042099839A3020F08F5F888319820AC08230C2
S113043041F489818F5F843010F4898302C019826A
S113044018820E94E50064E770E0CE010E94340146
S113045084E790E00E94C300A6CF2F923F924F9270
S11304605F926F927F928F929F92AF92BF92CF9240
S1130470DF92EF92FF920F931F93CF93DF93CDB749
S1130480DEB72D970FB6F894DEBF0FBECDBF6C015B
S11304909AE0EAE6F0E0DE01119601900D929A9559
S11304A0E1F7CE0101961C0110E0E12CF12C0F2E96
S11304B0F8EE4F2EF3E05F2E612C712CF02DF1013C
S11304C0219131911F01DB86EC86FD8640E050E0EE
S11304D060E074E284EF90E00E94F702C701B60185
S11304E00E94E702A30192010E94F70249015A0106
S11304F0213031054140510518F4153048F502C04A
S11305001F5FDDCFE12FF0E0EE0FFF1FEC0FFD1FAB
S11305102181328140E050E060E074E284EF90E0B9
S11305200E94F7026C2D7B858C859D850E94E702D5
S113053021E0683E73408105910508F420E09BBCEE
S11305408ABC99B7906199BF1F5F18601EBD01C036
S113055022E0822F2D960FB6F894DEBF0FBECDBFDA
S1130560DF91CF911F910F91FF90EF90DF90CF908B
S1130570BF90AF909F908F907F906F905F904F90BF
S11305803F902F9008951F920F920FB60F9211244F
S11305902F933F934F935F936F937F938F939F9387
S11305A0AF93BF93EF93FF930E945601FF91EF9196
S11305B0BF91AF919F918F917F916F915F914F9177
S11305C03F912F910F900FBE0F901F901895DB0154
S11305D08F939F930E941903BF91AF91A29F800DA7
S11305E0911DA39F900DB29F900D11240895A1E237
S11305F01A2EAA1BBB1BFD010DC0AA1FBB1FEE1F99
S1130600FF1FA217B307E407F50720F0A21BB30BE3
S1130610E40BF50B661F771F881F991F1A9469F75F
S113062060957095809590959B01AC01BD01CF01BB
S113063008950E942403A59F900DB49F900DA49F3C
S1130640800D911D11240895A29FB001B39FC00194
S1130650A39F700D811D1124911DB29F700D811DEA
S10D06601124911D0895F894FFCFB2
S113066A010200000000010002000100080040002D
S107067A0001000473
S9030000FC
