S011000053796D756C61636A612E737265636A
S11300000C942A000C943F000C943F000C943F0085
S11300100C943F000C943F000C943F000C943F0060
S11300200C943F000C943F000C943F000C943F0050
S11300300C943F000C943F000C943F000C943F0040
S11300400C943F000C943F000C943F000C943F0030
S11300500C943F0011241FBECFE5D8E0DEBFCDBF16
S113006010E0A0E6B0E0E8E9F1E002C005900D92EE
S1130070A436B107D9F70E94C3000C94CA000C94AB
S1130080000098B39E7F98BB98B39F70282F207F61
S1130090922B98BB98B3926098BB3AE03A95F1F7EB
S11300A000C098B39D7F98BB9AE69A95F1F700C07B
S11300B028B330E1839FC0011124922F9F70892BB4
S11300C088BB88B3826088BB8AE08A95F1F700C058
S11300D088B38D7F88BB87EC90E00197F1F700C06F
S11300E00000089598B3916098BB98B3926098BB50
S11300F098B39F70282F207F922B98BB3AE03A95B3
S1130100F1F700C098B39D7F98BB9AE69A95F1F7F2
S113011000C028B330E1839FC0011124922F9F7047
S1130120892B88BB88B3826088BB8AE08A95F1F703
S113013000C088B38D7F88BB87EC90E00197F1F70E
S113014000C000000895CF93DF93EC0103C0219613
S11301500E94720088818111FACFDF91CF910895B6
S11301608FEF87BB18BA82E00E94410088E20E94A8
S1130170410081E00E9441008FE00E94410086E03E
S11301800E94410008950E94B00080E690E00E9421
S10B0190A300FFCFF894FFCF98
S10701986162630039
S9030000FC
